:10112E00010901010C00011000020E0000010D006A
:08113E00010A00010B00C100D1
:1010AB00D2967F907E011210CDC296D2951210CDA2
:1010BB00C295D2941210CDC294D2931210CDC2937A
:0210CB00D292BF
:1010CD00E4FDFCC3ED9FEC9E5015E4FBFA0BBB0059
:0F10DD00010AEB646E4A70F50DBD00010C80E452
:0110EC0022E1
:10104B00D2967F907E011210CDC296D2951210CD02
:10105B00C295D2941210CDC294D2931210CDC293DA
:0C106B00D2921210CDC292D2911210CD80
:1010770020C5307F057E001210CD20C52630C5FD66
:10108700050BE50BB40203E4F50BE50B70077509D7
:1010970001C28CC2A9E50BB40109E4F509D200D25B
:0410A7008CD2A9221C
:10061500C2B0C2B1C2B3C2B4C2B5C2B6C2B7C2A03B
:10062500C2A1C2A2C2A3C2A4C2A5C2A6C2A7C2C475
:10063500C297C296C295C294C293C292C291C2C6D3
:100645007580017F0A7E001210CDE4F9E58025E072
:100655004401F5807F0A7E001210CD09B907EDD25D
:10066500C67F0A7E001210CDD2911210CDD2921201
:1006750010CDD2931210CDD2941210CDD295121066
:10068500CDD2961210CDD297E4F511C297C296C27B
:1006950095C294C293C292C291C2C67580017FE889
:1006A5007E031210CDE4F9E58025E04401F5807F55
:1006B500BC7E021210CD121077300004C2008004F7
:1006C50009B907E3D2C67FBC7E021210CD1210779E
:1006D50030000302079ED2917FBC7E021210CD121C
:1006E500107730000302079ED2927FBC7E02121063
:1006F500CD12107730000302079ED2937FBC7E0295
:100705001210CD12107730000302079ED2947FBCE1
:100715007E021210CD121077300002807CD2957FB8
:10072500BC7E021210CD121077300002806BD2967B
:100735007FBC7E021210CD121077300002805AD293
:10074500977F407E1F1210CD12107730000280492E
:100755007F407E1F1210CD121077300002803A7F45
:10076500407E1F1210CD121077300002802B7F4083
:100775007E1F1210CD121077300002801C7F407E44
:100785001F1210CD121077300002800D7F407E1FA2
:100795001210CD121077300006E4F509C2002205CB
:0D07A50011C3E51164809482500302069098
:0107B2002224
:100D9B00D297D296D295D294D293D292D291D2C6E6
:100DAB00D287D286D285D284D283D282D281D2808C
:100DBB00E4F9D2C4D2A0C2B0C2A17F907E011210BE
:100DCB00CDD2B0D2A1C2B1C2A21210CDD2B1D2A299
:100DDB00C2B3C2A31210CD121077300002804AD2D8
:100DEB00B3D2A3C2B4C2A47F907E011210CDD2B4F1
:100DFB00D2A4C2B5C2A51210CDD2B5D2A5C2B6C26D
:100E0B00A61210CD3000028020D2B6D2A6C2B7C235
:100E1B00A77F907E011210CDD2B7D2A7C2C4C2A0B9
:100E2B001210CD121077300006E4F509C20022092A
:080E3B00E9640C6003020DBD27
:010E4300228C
:10091200900190C2B0C2B1C2B3C2B4C2B5C2B6C233
:10092200B7C2A0C2A1C2A2C2A3C2A4C2A5C2A6C289
:10093200A7C2C4E4F511C297C296C295C294C293EB
:10094200C292C291C2C6758001AF82AE831210CD2F
:10095200E4F9E58025E0F580AF82AE831210CD1276
:100962001077300007E4F509C200800409B907E2F4
:10097200C287D2C6AF82AE831210CDC2C6D2911246
:1009820010CDC291D2921210CD1210773000030214
:100992000A5AC292D293AF82AE831210CDC293D2C0
:1009A200941210CDC294D2951210CD12107730004D
:1009B20003020A5AC295D296AF82AE831210CDC2FA
:1009C20096D2971210CDD296C2971210CD121077EE
:1009D200300003020A5AD295C296AF82AE83121039
:1009E200CDD294C2951210CDD293C2941210CD12D0
:1009F20010773000028061D292C293AF82AE83122E
:100A020010CDD291C2921210CDC291D2871210CDC6
:100A12001210773000028040D286C287AF82AE8346
:100A22001210CDD285C2861210CDD284C285121088
:100A3200CD121077300002801FD283C284AF82AE03
:100A4200831210CDD282C2831210CDD281C2821201
:100A520010CD121077300006E4F509C2002205110C
:0C0A6200C3E5116480948350030209383E
:010A6E002265
:100B4D00C2B0C2B1C2B3C2B4C2B5C2B6C2B7C2A0FE
:100B5D00C2A1C2A2C2A3C2A4C2A5C2A6C2A7C2C438
:100B6D00C297C296C295C294C293C292C291C2C696
:100B7D00C287C286C285C284C283C282C281C2813B
:100B8D00C280E4F9C297C280D2C6D2877FF47E01BB
:100B9D001210CDC2C6C287D291D2861210CD1210BC
:100BAD00773000028064D292D285C291C2867FF4E2
:100BBD007E011210CDD293D284C292C2851210CD75
:100BCD001210773000028042D294D283C293C28435
:100BDD007FF47E011210CDD295D282C294C28312BF
:100BED0010CD1210773000028020D296D281C2959E
:100BFD00C2827FF47E011210CDD297D280C296C2EE
:100C0D00811210CD121077300006E4F509C20022D2
:090C1D0009E964036003020B9174
:010C260022AB
:100A6F00D297D296D295D294D293D292D291D2C615
:100A7F00D287D286D285D284D283D282D281D281BA
:100A8F00D280E4F9C2B07F907E011210CDC2B112B4
:100A9F0010CDC2B31210CDC2B41210CD12107730D8
:100AAF000002801EC2B57F907E011210CDC2B61219
:100ABF0010CDC2B71210CDC2A01210CD12107730C8
:100ACF000006E4F509C20022C2A17F907E01121038
:100ADF00CDC2A21210CDC2A31210CDC2A41210CD3E
:100AEF001210773000028040C2A57F907E01121055
:100AFF00CDC2A61210CDC2A71210CDC2C47F287EC0
:100B0F00231210CD121077300002801C7F287E2315
:100B1F001210CD121077300002800D7F287E231225
:100B2F0010CD121077300004E4F5092275A0FF757F
:0D0B3F00B0FFD2C409E964036003020A9309
:010B4C002286
:100C2700900BB8D297D296D295D294D293D292D231
:100C370091D2C6D287D286D285D284D283D282D2AB
:100C470081D280E4F9D2B4D2A0D2A4D2C4C2B0C2B5
:100C5700B5C2A1C2A5AF82AE831210CD12107730F4
:100C67000002806FD2B0D2B5D2A1D2A5C2B1C2B6AE
:100C7700C2A2C2A6AF82AE831210CD121077300087
:100C8700028050D2B1D2B6D2A2D2A6C2B3C2B7C2E4
:100C9700A3C2A7AF82AE831210CD12107730000225
:100CA7008031D2B3D2B7D2A3D2A7C2B4C2A0C2A452
:100CB700C2C4AF82AE831210CDC3E964809486505C
:100CC7000C74702582F58274FE3583F583121077D4
:100CD700300006E4F509C2002209E9641460030242
:020CE7000C4CB3
:010CE90022E8
:10032900C2B0C2B1C2B3C2B4C2B5C2B6C2B7C2A02A
:10033900C2A1C2A2C2A3C2A4C2A5C2A6C2A7C2C464
:10034900E4F590F580C2C6D2977F907E011210CD58
:10035900D2961210B1C292D2911210CDC291D2C6C8
:100369001210CD1210773000030205F9C2C6D287E8
:100379007F907E011210CDC287D2861210CDC2861F
:10038900D2851210CDC285D2841210CDC284D283F7
:100399001210CDC283D2821210CDC282D281121024
:1003A900CDC281D2801210CD121077300003020520
:1003B900F91210ABC292D2911210CDC291D2C612CB
:1003C90010CDC2C6D2871210CD12107730000302A9
:1003D90005F9C287D2867F907E011210CDC286D2DE
:1003E900851210CDC285D2841210CDC284D2831257
:1003F90010CDC283D2821210CDC282D2811210CD09
:100409001210773000030205F912104B3000030275
:1004190005F9C291D2C67F907E011210CDC2C6D213
:10042900871210CDC287D2861210CDC286D285120C
:1004390010CDC285D2841210CDC284D2831210CDC0
:100449001210773000030205F9C283D2827F907EB1
:10045900011210CDD2961210513000030205F9C2D3
:1004690091D2C67F907E011210CDC2C6D2871210DA
:10047900CDC287D2861210CDC286D2851210CDC2C6
:1004890085D2841210CDC284D2831210CD12107776
:100499003000030205F912104B3000030205F9C2BE
:1004A90091D2C67F907E011210CDC2C6D28712109A
:1004B900CDC287D2861210CDC286D2851210CDC286
:1004C90085D2841210CDD2961210CD121077300039
:1004D900030205F9C296D2957F907E011210B812D7
:1004E90010773000030205F9C292D2917F907E0104
:1004F9001210CDC291D2C61210CDC2C6D287121027
:10050900CDC287D2861210CDC286D2851210CD12E5
:1005190010773000030205F912104B300003020571
:10052900F9C291D2C67F907E011210CDC2C6D28780
:100539001210CDC287D2861210CDD2961210CDC21A
:1005490096D2951210CDC295D2941210CD12107771
:100559003000030205F9C294D2937F907E011210F4
:10056900C6C292D2911210CDC291D2C61210CDC27A
:10057900C6D2871210CDD2961210CD121077300044
:10058900030205F9C296D2957F907E011210B8C276
:1005990092D2911210CDC291D2C61210CD121077FB
:1005A9003000030205F912104B300002804212108C
:1005B900ABD2961210CD1210773000028032C2965B
:1005C900D2957F907E011210CDC295D2941210CD92
:1005D900C294D2931210CDD2961210CDC296D29552
:1005E9001210CDC295D2941210CD12107730000698
:1005F900E4F509C20022D2967F907E011210CDC285
:0B06090096D2951210CDD2961210CDA3
:0106140022C3
:100F5700C2B0C2B1C2B3C2B4C2B5C2B6C2B7C2A0F0
:100F6700C2A1C2A2C2A3C2A4C2A5C2A6C2A7C2C42A
:100F7700D297D296D295D294D293D292D291D2C608
:100F8700D287D286D285D284D283D282D281D281AD
:100F9700D2807F287E231210CD1210773000028076
:100FA7001C7F287E231210CD121077300002800D8F
:100FB7007F287E231210CD121077300006E4F50942
:0A0FC700C200227F287E231210CD05
:010FD10022FD
:100CEA00C2B0C2B1C2B3C2B4C2B5C2B6C2B7C2A060
:100CFA00C2A1C2A2C2A3C2A4C2A5C2A6C2A7C2C49A
:100D0A00C297C296C295C294C293C292C291C2C6F7
:100D1A00C287C286C285C284C283C282C281C2819C
:100D2A00C280E4F9C294C293C284C283D297D2C663
:100D3A00D287D2807FE87E031210CDC297C2C6C284
:100D4A0087C280D296D291D286D2811210CD121049
:100D5A00773000028030C296C291C286C281D29593
:100D6A00D292D285D2827FE87E031210CDC295C27A
:100D7A0092C285C282D294D293D284D2831210CDE7
:100D8A00121077300006E4F509C2002209B9059469
:010D9A002236
:100FD200C2B0C2B1C2B3C2B4C2B5C2B6C2B7C2A075
:100FE200C2A1C2A2C2A3C2A4C2A5C2A6C2A7C2C4AF
:100FF200D297C296D295C294D293C292D291C2C6CD
:10100200D287C286D285C284D283C282D281C28072
:101012007F287E231210CD121077300002801C7FB1
:10102200287E231210CD121077300002800D7F2807
:101032007E231210CD121077300006E4F509C200AB
:08104200227F287E231210CD4D
:01104A002283
:10110E00E4F5BDF5BE75BC887F03AE071FEE70FA21
:0F111E00E5BC30E4FB75BC80E5BE25E025E0FFB5
:01112D00229F
:10114700758901758A3C758CB0C2A9C28CD2AF2251
:10000E00E508D3940F502BE50894004025750C019C
:10001E00E50C6480F8E5106480985016850C107518
:10002E008001C297C296C295C294C293C292C291E7
:10003E00C2C6E508D3941E502BE508940F402575D3
:10004E000C02E50C6480F8E5106480985016850C5F
:10005E0010758003C297C296C295C294C293C29283
:10006E00C291C2C6E508D3942D502BE508941E40CC
:10007E0025750C03E50C6480F8E510648098501625
:10008E00850C10758007C297C296C295C294C29312
:10009E00C292C291C2C6E508D3943C502BE5089497
:1000AE002D4025750C04E50C6480F8E510648098ED
:1000BE005016850C1075800FC297C296C295C294C9
:1000CE00C293C292C291C2C6E508D3944B502BE59F
:1000DE0008943C4025750C05E50C6480F8E5106429
:1000EE0080985016850C1075801FC297C296C295C7
:1000FE00C294C293C292C291C2C6E508D3945A501A
:10010E002BE508944B4025750C06E50C6480F8E54C
:10011E00106480985016850C1075803FC297C29659
:10012E00C295C294C293C292C291C2C6E508D3943C
:10013E0069502BE508945A4025750C07E50C648030
:10014E00F8E5106480985016850C1075807FC29764
:10015E00C296C295C294C293C292C291C2C6E5081B
:10016E00D39482502BE50894694025750C08E50C54
:10017E006480F8E5106480985016850C107580FF29
:10018E00C297C296C295C294C293C292C291C2C67F
:10019E00E508D39491502BE50894824025750C09FF
:1001AE00E50C6480F8E5106480985016850C107587
:1001BE0080FFD2C6C297C296C295C294C293C29213
:1001CE00C291E508D394A0502BE508949140257573
:1001DE000C0AE50C6480F8E5106480985016850CC6
:1001EE00107580FFD2C6D291C297C296C295C294A4
:1001FE00C293C292E508D394AF502BE50894A04069
:10020E0025750C0BE50C6480F8E51064809850168B
:10021E00850C107580FFD2C6D291D292C297C2962B
:10022E00C295C294C293E508D394BE502BE50894B0
:10023E00AF4025750C0CE50C6480F8E510648098D1
:10024E005016850C107580FFD2C6D291D292D293E1
:10025E00C297C296C295C294E508D394CD502BE5B1
:10026E000894BE4025750C0DE50C6480F8E510640D
:10027E0080985016850C107580FFD2C6D291D292FE
:10028E00D293D294C297C296C295E508D394DC500D
:10029E002BE50894CD4025750C0EE50C6480F8E531
:1002AE00106480985016850C107580FFD2C6D291BE
:1002BE00D292D293D294D295C297C296E508D39495
:1002CE00EB502BE50894DC4025750C0FE50C648093
:1002DE00F8E5106480985016850C107580FFD2C614
:1002EE00D291D292D293D294D295D296C297E50859
:1002FE00D394EB4025750C10E50C6480F8E5106482
:10030E0080985016850C107580FFD2C6D291D2926D
:0B031E00D293D294D295D296D29722AF
:1010ED00C2B0C2B1C2B3C2B4C2B5C2B6C2B7C2A059
:1010FD00C2A1C2A2C2A3C2A4C2A5C2A6C2A7C2C493
:01110D0022BF
:100ED00075BBFF75B4EFE4F5B37592FFF591759DA1
:100EE0000175A2041211477594FFF593E509B40149
:100EF00003120615E509B40103120D9BE509B401BF
:100F000003120912E509B40103120B4DE509B401FE
:100F100003120A6FE509B40103120C27E509B401B5
:100F200003120329E509B40103120F57E509B401BF
:100F300003120CEAE509B40103120FD2E50970AC03
:100F40001210ED12107712110E8F0812000E7F0290
:070F50007E001210CD809518
:03000B000207B336
:1007B300C0E0C0D0758AD8758CF0050FE50F7002C4
:1007C300050E6403450E600302090DF50EF50FE5F2
:1007D3001060021510E510B41002D297E510B40FA3
:1007E30002C297E510B40E04C297C296E510B40D89
:1007F30006C297C296C295E510B40C08C297C2967A
:10080300C295C294E510B40B0AC297C296C295C2B0
:1008130094C293E510B40A0CC297C296C295C294CF
:10082300C293C292E510B4090EC297C296C295C292
:1008330094C293C292C291E510B40810C297C296B3
:10084300C295C294C293C292C291C2C6E510B407C4
:1008530013C297C296C295C294C293C292C291C266
:10086300C675807FE510B40613C297C296C295C2BF
:1008730094C293C292C291C2C675803FE510B4057B
:1008830013C297C296C295C294C293C292C291C236
:10089300C675801FE510B40413C297C296C295C2F1
:1008A30094C293C292C291C2C675800FE510B4037D
:1008B30013C297C296C295C294C293C292C291C206
:1008C300C6758007E510B40213C297C296C295C2DB
:1008D30094C293C292C291C2C6758003E510B4015B
:1008E30013C297C296C295C294C293C292C291C2D6
:1008F300C6758001E5107012C297C296C295C29464
:0F090300C293C292C291C2C6F580D0D0D0E0326A
:03000000020E44A9
:0C0E4400787FE4F6D8FD758120020E8B4B
:100E5000020ED0E493A3F8E493A34003F68001F2DA
:100E600008DFF48029E493A3F85407240CC8C333A3
:100E7000C4540F4420C8834004F456800146F6DF72
:100E8000E4800B010204081020408090112EE47EC3
:100E9000019360BCA3FF543F30E509541FFEE49367
:100EA000A360010ECF54C025E060A840B8E493A32E
:100EB000FAE493A3F8E493A3C8C582C8CAC583CA59
:100EC000F0A3C8C582C8CAC583CADFE9DEE780BE11
:0111460000A8
:00000001FF
